:100000000C94DF000C9407010C9407010C94070179
:100010000C9407010C9407010C9407010C94070140
:100020000C9407010C9407010C9407010C94070130
:100030000C9407010C9407010C9407010C94070120
:100040000C94CB040C9407010C9499040C94730445
:100050000C9407010C9407010C9407010C94070100
:100060000C9407010C94070100407A10F35A00A089
:10007000724E18090010A5D4E80000E87648170071
:1000800000E40B54020000CA9A3B000000E1F505B1
:10009000000080969800000040420F000000A086FB
:1000A00001000000102700000000E803000000002D
:1000B0006400000000000A000000000001000000D1
:1000C00000002C76D888DC674F0823DFC1DFAE59EB
:1000D000E1B1B796E5E3E453C63AE651997696E87E
:1000E000E6C28426EB898C9B62ED407C6FFCEFBC02
:1000F0009C9F40F2BAA56FA5F490055A2AF75C932D
:100100006B6CF9676DC11BFCE0E40D47FEF520E662
:10011000B500D0ED902E0300943577050080841E45
:10012000080000204E0A000000C80C333333330FA0
:10013000986E12831141EF8D2114893BE65516CF3D
:10014000FEE6DB18D1844B381BF77C1D901DA4BB49
:10015000E424203284725E228100C9F124ECA1E5FE
:100160003D2700000000240027002A0000000000B6
:10017000250028002B000000000023002600290095
:10018000040404040404040402020202020203033D
:100190000303030301020408102040800102040845
:1001A00010200102040810200000000800020100D5
:1001B0000003040700000000000000007F07112476
:1001C0001FBECFEFD8E0DEBFCDBF11E0A0E0B1E0B1
:1001D000E8EAF9E102C005900D92AC33B107D9F716
:1001E00021E0ACE3B1E001C01D92A33FB207E1F70B
:1001F00010E0CFEDD0E004C02197FE010E94C00ABC
:10020000CE3DD107C9F70E9415050C94D20C0C9471
:1002100000002FB7F89480914E0190914F01A0916A
:100220005001B09151012FBF80935A0190935B010F
:10023000A0935C01B0935D01E0915201F0915301F4
:100240000484F585E02D82E591E0099597FF26C0AD
:100250002FB7F89480914E0190914F01A0915001D9
:10026000B09151012FBF40915A0150915B016091B3
:100270005C0170915D01841B950BA60BB70B40913F
:10028000560150915701609158017091590184179E
:100290009507A607B70780F28FEF9FEF089508959F
:1002A000CF92DF92EF92FF920F931F93CF93DF9342
:1002B0006C017A018B01C0E0D0E0CE15DF0589F03A
:1002C000D8016D918D01D601ED91FC910190F081E5
:1002D000E02DC6010995892B11F47E0102C02196FB
:1002E000ECCFC701DF91CF911F910F91FF90EF905D
:1002F000DF90CF900895089580E090E00895FC018C
:10030000538D448D252F30E0842F90E0821B930B7A
:10031000541710F0CF96089501970895FC01918D20
:10032000828D981761F0828DDF01A80FB11D5D9657
:100330008C91928D9F5F9F73928F90E008958FEFC5
:100340009FEF0895FC01918D828D981731F0828D79
:10035000E80FF11D858D90E008958FEF9FEF0895D0
:10036000FC01918D228D892F90E0805C9F4F821B34
:1003700091098F739927089582E591E00E94B00159
:1003800021E0892B09F420E0822F0895FC01848D5F
:10039000DF01A80FB11DA35ABF4F2C91848D90E0AF
:1003A00001968F739927848FA689B7892C93A0898A
:1003B000B1898C9180648C93938D848D981306C041
:1003C0000288F389E02D80818F7D80830895EF92EC
:1003D000FF920F931F93CF93DF93EC0181E0888FFF
:1003E0009B8D8C8D981305C0E889F989808185FDE6
:1003F00024C0F62E0B8D10E00F5F1F4F0F731127D7
:10040000E02E8C8DE8120CC00FB607FCFACFE889FD
:10041000F989808185FFF5CFCE010E94C601F1CF19
:100420008B8DFE01E80FF11DE35AFF4FF0820B8F19
:10043000EA89FB898081806207C0EE89FF89608339
:10044000E889F98980818064808381E090E0DF9190
:10045000CF911F910F91FF90EF900895CF93DF936D
:10046000EC01888D8823C9F0EA89FB89808185FDAC
:1004700005C0A889B9898C9186FD0FC00FB607FC0D
:10048000F5CF808185FFF2CFA889B9898C9185FF4E
:10049000EDCFCE010E94C601E7CFDF91CF91089545
:1004A00080E090E0892B29F00E94BC0181110C941E
:1004B00000000895833081F028F4813099F0823073
:1004C000A1F008958730A9F08830B9F08430D1F4D4
:1004D000809180008F7D03C0809180008F77809312
:1004E0008000089584B58F7702C084B58F7D84BD68
:1004F00008958091B0008F7703C08091B0008F7D08
:100500008093B0000895CF93DF93E6EBF1E0849100
:10051000E2EAF1E0D491EEE8F1E0C491CC2391F06D
:1005200081110E945A02EC2FF0E0EE0FFF1FEA58F3
:10053000FE4FA591B491EC91ED2381E090E021F480
:1005400080E002C080E090E0DF91CF9108951F939A
:10055000CF93DF93282F30E0F901E855FE4F8491C7
:10056000F901EC56FE4FD491F901E058FE4FC491C9
:10057000CC23C9F0162F81110E945A02EC2FF0E013
:10058000EE0FFF1FE459FE4FA591B4918FB7F89479
:10059000111105C09C91ED2FE095E92302C0EC916B
:1005A000ED2BEC938FBFDF91CF911F910895CF93E7
:1005B000DF9390E0FC01EC56FE4F2491FC01E058E3
:1005C000FE4F8491882361F190E0880F991FFC0110
:1005D000EE59FE4FC591D491FC01E459FE4FA5910F
:1005E000B491611109C09FB7F89488812095822346
:1005F0008883EC912E230BC0623061F49FB7F8948E
:100600003881822F809583238883EC912E2B2C9325
:100610009FBF06C08FB7F894E8812E2B28838FBF29
:10062000DF91CF9108953FB7F89480913D0190916B
:100630003E01A0913F01B091400126B5A89B05C0A5
:100640002F3F19F00196A11DB11D3FBFBA2FA92F51
:10065000982F8827820F911DA11DB11DBC01CD01CE
:1006600042E0660F771F881F991F4A95D1F70895BA
:100670008F929F92AF92BF92CF92DF92EF92FF92B2
:100680006B017C010E9413034B015C01C114D10476
:10069000E104F104F1F00E941303DC01CB0188199D
:1006A0009909AA09BB09883E9340A105B10570F3D9
:1006B00021E0C21AD108E108F10888EE880E83E033
:1006C000981EA11CB11CC114D104E104F10419F756
:1006D000DDCFFF90EF90DF90CF90BF90AF909F90D5
:1006E0008F90089560E087E00E94A70260E086E0B6
:1006F0000E94A70281E00895CF93DF93EC018881E7
:100700009981009711F00E945B0B198218821D825B
:100710001C821B821A82DF91CF9108950E94BD0C2A
:100720000F931F93CF93DF93EC01888199810097FA
:1007300029F02A813B812617370788F48B016F5FE8
:100740007F4F0E94F30B009761F0998388831B838E
:100750000A832C813D81232B11F4FC01108281E05E
:1007600001C080E0DF91CF911F910F910895EF922A
:10077000FF920F931F93CF93DF93FC012481358168
:100780006115710511F480E019C041155105A9F0FA
:100790007B01EC018A01020F131FB8010E94900334
:1007A000882389F3288139818C819D81B701820F4B
:1007B000931F0E94CB0C1D830C8381E0DF91CF91AE
:1007C0001F910F91FF90EF900895EF92FF920F937A
:1007D0001F93CF93DF93CDB7DEB764970FB6F8942E
:1007E000DEBF0FBECDBF7C01CB01BA018E010F5F12
:1007F0001F4F22E044E00E94AC07FC010190002062
:10080000E9F73197AF01481B590BBC01C7010E94A2
:10081000B703811103C0C7010E947C03C70164961E
:100820000FB6F894DEBF0FBECDBFDF91CF911F9101
:100830000F91FF90EF900895CF93DF93EC01611536
:10084000710561F0FB0101900020E9F73197AF01DC
:10085000461B570B0E94B703811103C0CE010E94B3
:100860007C03CE01DF91CF910895EF92FF920F9319
:100870001F93CF93DF93FC011182108213821282A7
:10088000158214828617970739F1DB010D911C91AF
:1008900011970115110501F1EC011496ED90FC90F2
:1008A0001597B7010E949003811109C0CE01DF9115
:1008B000CF911F910F91FF90EF900C947C03FD82DC
:1008C000EC82B80188819981DF91CF911F910F91BE
:1008D000FF90EF900C94CB0CDF91CF911F910F9173
:1008E000FF90EF9008951F920F920FB60F92112470
:1008F0002F933F934F935F936F937F938F939F9328
:10090000AF93BF93EF93FF9382E591E00E94C601FE
:10091000FF91EF91BF91AF919F918F917F916F91D7
:100920005F914F913F912F910F900FBE0F901F90AD
:1009300018951F920F920FB60F9211242F938F9339
:100940009F93EF93FF93E0916201F09163018081A7
:10095000E0916801F091690182FD12C0908180915F
:100960006B018F5F8F7320916C01821751F0E091C2
:100970006B01F0E0EE5AFE4F958F80936B0101C042
:100980008081FF91EF919F918F912F910F900FBEDA
:100990000F901F9018951F920F920FB60F9211246F
:1009A0002F933F938F939F93AF93BF9380914E016B
:1009B00090914F01A0915001B091510130913C01B3
:1009C00023E0230F2D3720F40196A11DB11D05C092
:1009D00026E8230F0296A11DB11D20933C018093B0
:1009E0004E0190934F01A0935001B093510180911B
:1009F0003D0190913E01A0913F01B09140010196CF
:100A0000A11DB11D80933D0190933E01A0933F0134
:100A1000B0934001BF91AF919F918F913F912F91E2
:100A20000F900FBE0F901F901895CF93DF93CDB707
:100A3000DEB766970FB6F894DEBF0FBECDBF7894D1
:100A400084B5826084BD84B5816084BD85B58260D3
:100A500085BD85B5816085BD80916E008160809384
:100A60006E001092810080918100826080938100ED
:100A700080918100816080938100809180008160FD
:100A8000809380008091B10084608093B100809158
:100A9000B00081608093B00080917A008460809380
:100AA0007A0080917A00826080937A0080917A0047
:100AB000816080937A0080917A00806880937A00C8
:100AC0001092C100E0916201F091630182E08083A5
:100AD000E0915E01F0915F011082E0916001F09180
:100AE00061018FEC808310926A01E0916601F091C0
:100AF000670186E08083E0916401F0916501808167
:100B000080618083E0916401F0916501808188605B
:100B10008083E0916401F091650180818068808329
:100B2000E0916401F091650180818F7D808368EEA2
:100B300073E080E090E00E94380361E087E00E946B
:100B4000D70261E086E00E94D7020BE910E0EE24B4
:100B5000E394F12CE8EECE2EE3E0DE2E1092490174
:100B600010924A0110924B0110924C0110924D01CB
:100B700061E08EE00E94D70260E08EE00E94A70252
:100B800064E170E080E090E00E94380361E08EE074
:100B90000E94A702C8010197F1F760E08EE00E9471
:100BA000D70261E1A62E67E2B62E0E948302892B4E
:100BB00029F481E0A81AB108C1F774C051E1A52E4B
:100BC00057E2B52E0E948302019729F481E0A81A0A
:100BD000B108C1F767C038E2832E912C47E0B42EEC
:100BE000A12C21E1622E27E2722E0E948302892B22
:100BF00029F481E0681A7108C1F754C00E941303F8
:100C00001B012C0191E1692E97E2792E0E9483024B
:100C1000019729F481E0681A7108C1F743C00E9466
:100C20001303DC01CB0182199309A409B509899743
:100C3000A105B10568F0EA2DF0E0EF5BFE4F2085DD
:100C4000C7010B2C01C0880F0A94EAF7822B80871A
:100C5000B11004C0A39487E0B82E01C0BA9481E01B
:100C6000881A910809F0BDCF6091490170E080E0D9
:100C700090E00E94320A6093410170934201809398
:100C800043019093440160914B0170E080E090E05B
:100C90000E94320A60934501709346018093470198
:100CA000909348011E861D86188A1F861A8A198A03
:100CB00060E070E0CE010D960E949003811105C0A6
:100CC000CE010D960E947C0308C01A8A198A6BE334
:100CD00071E08D859E850E94CB0C8090450190909F
:100CE0004601A0904701B0904801409041015090CA
:100CF00042016090430170904401BE01635F7F4FE9
:100D0000CE0107960E94350468E171E0CE01079696
:100D10000E941C04B301A2010E94E50365E271E098
:100D20000E941C046AE271E00E941C04B501A40147
:100D30000E94E503BC01CE0101960E9435048D8519
:100D40009E850097A9F069817A816115710571F01E
:100D50004F8558892D813E814217530738F00E94F4
:100D6000CB0C8D819E819A8B898B12C00E945B0B6C
:100D700089819A819E878D878B819C81988B8F87B3
:100D80008D819E819A8B898B1A8219821C821B828B
:100D90001E821D8289819A810E945B0B8F819885BA
:100DA0000E945B0B68EE73E080E090E00E943803E5
:100DB00049895A896D857E8582E591E00E945001BE
:100DC00042E050E069E371E082E591E00E94500169
:100DD0008D859E850E945B0B82E591E00E94B001AB
:100DE000892B09F466C00E940901FC0197FD11C01E
:100DF0008D32910591F0C0970A9778F0E0915201F9
:100E0000F09153010284F385E02D82E591E009958C
:100E1000EACF80E090E0DC012DC020E030E0A901C5
:100E2000B12CE130F10509F047C0E0915201F09199
:100E300053010284F385E02D82E591E02B8B3C8BFE
:100E40004D8B5E8B09950E940901FC01C0972B898F
:100E50003C894D895E890A9720F3E130F10509F359
:100E6000BB2009F449C088279927DC01821B930B1A
:100E7000A40BB50B5C0118161906CCF481E0A8167A
:100E8000B104B9F061E087E00E94A70260E086E06B
:100E90000E94A702AC9CB001AD9C700DBC9C700D73
:100EA0001124072E000C880B990B0E9438030E9416
:100EB00072030E94500252CEED32F105D1F0CF0103
:100EC000C0970A9708F0B1CFAAE0B0E00E946F0A7D
:100ED0002F01FF0F66087708DC01CB01840D951DFB
:100EE000A61DB71D9C01AD012053310941095109CF
:100EF0009CCFBB24B39499CFDA01C901BBCFE2E503
:100F0000F1E01382128288EE93E0A0E0B0E08483E7
:100F10009583A683B7838AE091E09183808385ECF3
:100F200090E09587848784EC90E09787868780ECB3
:100F300090E0918B808B81EC90E0938B828B82ECA4
:100F400090E0958B848B86EC90E0978B868B118E4E
:100F5000128E138E148E0895EF920F931F93CF93DA
:100F6000DF93E80147FD02C034E001C034E1E42F23
:100F7000440FFF0BF7FF03C0F195E195F109E32E54
:100F8000022F2E2FAE010E94CC07CE01DF91CF9110
:100F90001F910F91EF9008954F925F926F927F9201
:100FA0009F92AF92BF92CF92DF92EF92FF920F93F8
:100FB0001F93CF93DF93CDB7DEB729970FB6F89481
:100FC000DEBF0FBECDBF6A01122FB02E2BE320175C
:100FD00020F0FF24F394F00E02C0BCE3FB2E0F2D93
:100FE00027E0AE014F5F5F4F0E945A09AC01898133
:100FF000982F9970913031F0E1FC06C0E0FE06C0F8
:1010000090E205C09DE203C09BE201C090E0EE2D9E
:10101000E07183FF3CC0911102C083E001C084E015
:10102000811718F4212F281B01C020E0E1110BC00B
:10103000F601822F30E2882319F031938150FBCFE3
:10104000C20ED11C20E0992329F0D6019C93F60111
:1010500031966F01C6010396E2FE0AC03EE4D60156
:101060003C9341E411964C93119712963C9306C021
:101070003EE6F601308341E641833283FC01322FA4
:1010800040E2332309F442C041933150FACF82FF4A
:1010900044C0911102C083E001C084E0811718F4BC
:1010A000212F281B01C020E0E1110BC0F601822F87
:1010B00030E2882319F031938150FBCFC20ED11C4E
:1010C00020E0992329F0D6019C93F60131966F0117
:1010D000C6010396E2FE0BC039E4D6013C933EE420
:1010E00011963C93119736E412963C9307C039E66B
:1010F000F60130833EE6318336E63283FC01322F3F
:1011000040E2332319F041933150FBCFFC01E20F51
:10111000F11D10828EEF9FEFB7C0F1E0911101C079
:10112000F0E06F2F70E01416150624F49A012F5F7B
:101130003F4F02C021E030E0260F371FBB2029F0CF
:101140006B2D70E06F5F7F4F02C060E070E0260F94
:10115000371F612F70E0261737071CF4121B212F51
:1011600001C020E03E2D387159F4D601322F60E2E3
:10117000332319F06D933150FBCFC20ED11C20E008
:10118000FF2331F0D6019C93B6016F5F7F4F6B0157
:10119000E1110BC0F601922F30E3992319F031933E
:1011A0009150FBCFC20ED11C20E09F2D940F3A81AD
:1011B000782F7071A72E84FF03C0313309F491504A
:1011C000191624F4993018F098E001C091E0E42F4A
:1011D000852F57FF02C0E0E080E06E2F782FE0E01F
:1011E000F0E0AEE29A2E3A01691A71082A01461A15
:1011F000570A0B2D10E01195019511096F3F8FEFE4
:10120000780729F4D6019C92C60101966C01461715
:10121000570784F0661677066CF47F01E40CF51C22
:10122000A1E0B0E0AC0FBD1FEA0EFB1ED701119686
:10123000BC9002C090E3B92E615071093196C6018D
:1012400001967C016017710724F0D601BC926C01F5
:10125000D5CF6417750741F4363320F4353321F4C4
:10126000A11002C081E3B82EF601B082F701822FEF
:1012700090E2882319F091938150FBCFF701E20FA0
:10128000F11D108280E090E029960FB6F894DEBF41
:101290000FBECDBFDF91CF911F910F91FF90EF90C7
:1012A000DF90CF90BF90AF909F907F906F905F90B6
:1012B0004F900895283008F027E03327DA01990F7E
:1012C000311D87FD916000966105710539F432602A
:1012D0002E5F3D9330E32A95E1F708959F3F30F06C
:1012E00080387105610509F03C5F3C5F3D939130AA
:1012F00008F08068911DDF93CF931F930F93FF92A7
:10130000EF92192F987F9695E92F96959695E90F6C
:10131000FF27EE53FF4F99273327EE24FF24A70121
:10132000E70105900894079428F4360FE71EF81E8D
:10133000491F511D660F771F881F991F0694A1F73B
:101340000590079428F4E70EF81E491F561FC11D8B
:10135000770F881F991F661F0694A1F705900794C1
:1013600028F4F80E491F561FC71FD11D880F991F5B
:10137000661F771F0694A1F70590079420F4490F84
:10138000561FC71FD81F990F661F771F881F069407
:10139000A9F784911095177041F0D695C795579588
:1013A0004795F794E7941A95C1F7E8E6F0E068945A
:1013B0001590159135916591959105907FE2739502
:1013C000E118F10A430B560BC90BD009C0F7E10C29
:1013D000F11E431F561FC91FD01D7EF4703311F438
:1013E0008A95E6CFE894015030F0080F0AF4002700
:1013F000021708F4202F2395022F7A3328F079E37F
:101400007D932A95E9F710C07D932A9589F6069475
:1014100097956795379517951794E118F10A430B3F
:10142000560BC90BD00998F023957E9173957A33AA
:1014300008F070E37C932013B8F77E9170617D9380
:1014400030F0839571E37D9370E32A95E1F71124E1
:10145000EF90FF900F911F91CF91DF91992787FD1A
:1014600090950895E89409C097FB3EF49095809577
:10147000709561957F4F8F4F9F4F9923A9F0F92F5A
:1014800096E9BB279395F695879577956795B795D8
:10149000F111F8CFFAF4BB0F11F460FF1BC06F5FBE
:1014A0007F4F8F4F9F4F16C0882311F096E911C0D0
:1014B000772321F09EE8872F762F05C0662371F0F1
:1014C00096E8862F70E060E02AF09A95660F771F05
:1014D000881FDAF7880F9695879597F908950E94E7
:1014E000B10AA59F900DB49F900DA49F800D911DF2
:1014F000112408952F923F924F925F926F927F92A4
:101500008F929F92AF92BF92CF92DF92EF92FF9213
:101510000F931F93CF93DF93CDB7DEB7CA1BDB0BBF
:101520000FB6F894DEBF0FBECDBF09942A88398864
:1015300048885F846E847D848C849B84AA84B9846B
:10154000C884DF80EE80FD800C811B81AA81B98177
:10155000CE0FD11D0FB6F894DEBF0FBECDBFED018B
:101560000895A29FB001B39FC001A39F700D811D7C
:101570001124911DB29F700D811D1124911D08959C
:10158000EE0FFF1F0590F491E02D0994CF93DF93A8
:101590008230910510F482E090E0E091F101F09149
:1015A000F20120E030E0C0E0D0E0309711F140815E
:1015B000518148175907C0F04817590761F48281D3
:1015C0009381209719F09B838A832BC09093F2011B
:1015D0008093F10126C02115310519F042175307F8
:1015E00018F49A01BE01DF01EF010280F381E02DC2
:1015F000DCCF2115310509F1281B390B24303105C9
:1016000090F412968D919C9113976115710521F0BC
:10161000FB019383828304C09093F2018093F101D4
:10162000FD01329644C0FD01E20FF31F81939193B7
:10163000225031092D933C933AC02091EF01309113
:10164000F001232B41F420910201309103013093EA
:10165000F0012093EF01209100013091010121154B
:10166000310541F42DB73EB7409104015091050179
:10167000241B350BE091EF01F091F001E217F30725
:10168000A0F42E1B3F0B2817390778F0AC014E5FF2
:101690005F4F2417350748F04E0F5F1F5093F0013E
:1016A0004093EF018193919302C0E0E0F0E0CF011D
:1016B000DF91CF9108950F931F93CF93DF930097FE
:1016C00009F48CC0FC013297138212820091F1015F
:1016D0001091F2010115110581F420813181820FF1
:1016E000931F2091EF013091F0012817390779F508
:1016F000F093F001E093EF0171C0D80140E050E0B9
:10170000AE17BF0750F412962D913C911397AD017F
:101710002115310509F1D901F3CF9D01DA01338398
:10172000228360817181860F971F8217930769F466
:10173000EC0128813981260F371F2E5F3F4F3183FF
:1017400020838A819B8193838283452B29F4F093A4
:10175000F201E093F10142C01396FC93EE931297CD
:10176000ED01499159919E01240F351FE217F307AE
:1017700071F480819181840F951F029611969C933C
:101780008E938281938113969C938E931297E0E0BF
:10179000F0E0D80112968D919C911397009719F063
:1017A000F8018C01F6CF8D919C9198012E5F3F4FEF
:1017B000820F931F2091EF013091F0012817390714
:1017C00069F4309729F41092F2011092F10102C0ED
:1017D000138212821093F0010093EF01DF91CF91F9
:1017E0001F910F910895A0E0B0E0E9EFFBE00C94A9
:1017F0007E0AEC01009721F4CB010E94C60AB8C012
:10180000FC01E60FF71F9C0122503109E217F30794
:1018100008F4ACC0D9010D911C9111970617170758
:10182000B0F00530110508F49FC0C8010497861771
:10183000970708F499C002501109061B170B019372
:1018400011936D937C93CF010E945B0B8DC05B0164
:10185000A01AB10A4C01800E911EA091F101B09125
:10186000F20140E050E0E12CF12C109709F44AC05D
:10187000A815B905D1F56D907C901197630182E0B0
:10188000C80ED11CCA14DB0480F1A3014A195B09FC
:101890006A0182E0C80ED11C1296BC901297139672
:1018A000AC91B5E0CB16D10440F0B282A383518352
:1018B0004083D9016D937C930AC00E5F1F4FC30113
:1018C000800F911FF90191838083EB2DFA2FE11492
:1018D000F10431F0D7011396FC93EE93129744C0B4
:1018E000F093F201E093F1013FC08D919C9111972B
:1018F0004817590708F4AC017D0112960D90BC9170
:10190000A02DB3CF8091EF019091F001881599053A
:10191000E1F446175707C8F4809100019091010146
:10192000009741F48DB79EB7409104015091050195
:10193000841B950BE817F907C8F4F093F001E093C6
:10194000EF01F901718360830FC0CB010E94C60AC9
:101950007C01009759F0A801BE010E94C20CCE0183
:101960000E945B0BC70104C0CE0102C080E090E082
:10197000CDB7DEB7EEE00C949A0A81E090E0F894DF
:101980000C94D20CFB01DC0102C001900D9241507D
:101990005040D8F70895FB01DC0101900D92002022
:0819A000E1F70895F894FFCF70
:1019A8000000F301800000000000E70150017F0102
:1019B8002E02B0018E01A2012268756D69646974F6
:1019C80079223A220025222C20002274656D706548
:0C19D800726174757265223A000D0A00FD
:00000001FF
