:100000000C9462000C948A000C948A000C948A0070
:100010000C948A000C948A000C948A000C948A0038
:100020000C948A000C948A000C948A000C948A0028
:100030000C948A000C948A000C948A000C948A0018
:100040000C9482030C948A000C9450030C942A03A1
:100050000C948A000C948A000C948A000C948A00F8
:100060000C948A000C948A000000000024002700F1
:100070002A0000000000250028002B0000000008D6
:10008000000201000003040700000000000000005F
:1000900000000000230026002900040404040404D6
:1000A0000404020202020202030303030303010227
:1000B00004081020408001020408102001020408F6
:1000C0001020570611241FBECFEFD8E0DEBFCDBFF2
:1000D00021E0AEE2B1E001C01D92AE3DB207E1F712
:1000E00011E0A0E0B1E0EEE9F4E102C005900D926C
:1000F000AE32B107D9F710E0C2E6D0E004C02197D4
:10010000FE010E943B08C136D107C9F70E941104C5
:100110000C944D0A0C9400002FB7F894809139018B
:1001200090913A01A0913B01B0913C012FBF809387
:10013000450190934601A0934701B0934801E09197
:100140003D01F0913E010484F585E02D8DE391E0C1
:10015000099597FF26C02FB7F894809139019091A7
:100160003A01A0913B01B0913C012FBF4091450164
:10017000509146016091470170914801841B950B95
:10018000A60BB70B40914101509142016091430190
:100190007091440184179507A607B70780F28FEF87
:1001A0009FEF08950895CF92DF92EF92FF920F9301
:1001B0001F93CF93DF936C017A018B01C0E0D0E0F5
:1001C000CE15DF0589F0D8016D918D01D601ED9135
:1001D000FC910190F081E02DC6010995892B11F465
:1001E0007E0102C02196ECCFC701DF91CF911F9114
:1001F0000F91FF90EF90DF90CF900895089580E0E9
:1002000090E00895FC01538D448D252F30E0842F1C
:1002100090E0821B930B541710F0CF96089501972E
:100220000895FC01918D828D981761F0828DDF0118
:10023000A80FB11D5D968C91928D9F5F9F73928FD9
:1002400090E008958FEF9FEF0895FC01918D828DCE
:10025000981731F0828DE80FF11D858D90E008959B
:100260008FEF9FEF0895FC01918D228D892F90E0F3
:10027000805C9F4F821B91098F73992708958DE3AE
:1002800091E00E94330121E0892B09F420E0822FC4
:100290000895FC01848DDF01A80FB11DA35ABF4F43
:1002A0002C91848D90E001968F739927848FA68975
:1002B000B7892C93A089B1898C9180648C93938D9C
:1002C000848D981306C00288F389E02D80818F7D8C
:1002D00080830895EF92FF920F931F93CF93DF9344
:1002E000EC0181E0888F9B8D8C8D981305C0E88987
:1002F000F989808185FD24C0F62E0B8D10E00F5FFB
:100300001F4F0F731127E02E8C8DE8120CC00FB613
:1003100007FCFACFE889F989808185FFF5CFCE0106
:100320000E944901F1CF8B8DFE01E80FF11DE35AC8
:10033000FF4FF0820B8FEA89FB898081806207C0C2
:10034000EE89FF896083E889F989808180648083F0
:1003500081E090E0DF91CF911F910F91FF90EF909E
:100360000895CF93DF93EC01888D8823C9F0EA8943
:10037000FB89808185FD05C0A889B9898C9186FD9E
:100380000FC00FB607FCF5CF808185FFF2CFA8899B
:10039000B9898C9185FFEDCFCE010E944901E7CF4D
:1003A000DF91CF91089580E090E0892B29F00E94A1
:1003B0003F0181110C940000089590E0FC01E45885
:1003C000FF4F3491FC01E255FF4F2491FC01E656AA
:1003D000FF4FE491EE2309F43BC0332339F133306E
:1003E00091F038F43130A9F0323001F584B58F7DC9
:1003F00012C0373091F03830A1F03430B9F4809128
:1004000080008F7D03C0809180008F778093800073
:100410000DC084B58F7784BD09C08091B0008F77FF
:1004200003C08091B0008F7D8093B000F0E0EE0FAC
:10043000FF1FEE58FF4FA591B4918FB7F894EC9140
:10044000611103C020952E2301C02E2B2C938FBF4A
:100450000895CF93DF9390E0FC01E255FF4F249184
:10046000FC01E656FF4F8491882361F190E0880FEC
:10047000991FFC01E859FF4FC591D491FC01EE583A
:10048000FF4FA591B491611109C09FB7F89488817D
:10049000209582238883EC912E230BC0623061F477
:1004A0009FB7F8943881822F809583238883EC91BD
:1004B0002E2B2C939FBF06C08FB7F894E8812E2B6C
:1004C00028838FBFDF91CF9108953FB7F894809133
:1004D0002F0190913001A0913101B091320126B5E8
:1004E000A89B05C02F3F19F00196A11DB11D3FBF6C
:1004F000BA2FA92F982F8827820F911DA11DB11DFA
:10050000BC01CD0142E0660F771F881F991F4A95F5
:10051000D1F708958F929F92AF92BF92CF92DF92C0
:10052000EF92FF926B017C010E9465024B015C011E
:10053000C114D104E104F104F1F00E946502DC0170
:10054000CB0188199909AA09BB09883E9340A105E6
:10055000B10570F321E0C21AD108E108F10888EE74
:10056000880E83E0981EA11CB11CC114D104E104C3
:10057000F10419F7DDCFFF90EF90DF90CF90BF909F
:10058000AF909F908F90089560E087E00E94DD011A
:1005900060E086E00E94DD0181E00895CF93DF9363
:1005A000EC0188819981009711F00E94D608198288
:1005B00018821D821C821B821A82DF91CF910895BE
:1005C0000E94380A0F931F93CF93DF93EC01888129
:1005D0009981009729F02A813B812617370788F4F3
:1005E0008B016F5F7F4F0E946E09009761F09983C6
:1005F00088831B830A832C813D81232B11F4FC010A
:10060000108281E001C080E0DF91CF911F910F91B6
:100610000895EF92FF920F931F93CF93DF93EC0116
:100620007B018A01BA010E94E202811104C0CE015D
:100630000E94CE0207C01D830C83B7018881998177
:100640000E94460ACE01DF91CF911F910F91FF903A
:10065000EF9008951F920F920FB60F9211242F93CF
:100660003F934F935F936F937F938F939F93AF933A
:10067000BF93EF93FF938DE391E00E944901FF91B7
:10068000EF91BF91AF919F918F917F916F915F910A
:100690004F913F912F910F900FBE0F901F90189583
:1006A0001F920F920FB60F9211242F938F939F9347
:1006B000EF93FF93E0914D01F0914E018081E09125
:1006C0005301F091540182FD12C090818091560136
:1006D0008F5F8F7320915701821751F0E09156017F
:1006E000F0E0E35CFE4F958F8093560101C080815E
:1006F000FF91EF919F918F912F910F900FBE0F90CF
:100700001F9018951F920F920FB60F9211242F93DE
:100710003F938F939F93AF93BF93809139019091B3
:100720003A01A0913B01B0913C0130912E0123E0B0
:10073000230F2D3720F40196A11DB11D05C026E819
:10074000230F0296A11DB11D20932E018093390124
:1007500090933A01A0933B01B0933C0180912F010B
:1007600090913001A0913101B09132010196A11D0B
:10077000B11D80932F0190933001A0933101B0936C
:100780003201BF91AF919F918F913F912F910F9027
:100790000FBE0F901F901895CF92DF92EF92FF92AD
:1007A0000F931F93E82FF92F05C00150110921095C
:1007B000310961F1908196239417B9F305C0015076
:1007C00011092109310911F1908196239413F7CF72
:1007D000C12CD12CE12CF12C0AC08FEFC81AD80AF9
:1007E000E80AF80A0C151D052E053F0579F08081F1
:1007F0008623841791F36C2D7D2D8E2D9F2D1F91B7
:100800000F91FF90EF90DF90CF90089560E070E03F
:1008100080E090E01F910F91FF90EF90DF90CF90DC
:100820000895CF93DF93CDB7DEB7A8970FB6F894AE
:10083000DEBF0FBECDBF789484B5826084BD84B521
:10084000816084BD85B5826085BD85B5816085BDCB
:1008500080916E00816080936E0010928100809183
:10086000810082608093810080918100816080930B
:100870008100809180008160809380008091B10030
:1008800084608093B1008091B00081608093B0005B
:1008900080917A00846080937A0080917A008260EF
:1008A00080937A0080917A00816080937A008091B1
:1008B0007A00806880937A001092C100E0914D0127
:1008C000F0914E0182E08083E0914901F0914A016C
:1008D0001082E0914B01F0914C018FEC80831092DB
:1008E0005501E0915101F091520186E08083E09141
:1008F0004F01F0915001808180618083E0914F0130
:10090000F0915001808188608083E0914F01F091E7
:100910005001808180688083E0914F01F091500107
:1009200080818F7D808361E089E00E94290260E000
:100930008AE00E94290261E087E00E94290261E0CA
:1009400086E00E94290293E0C92ED12C23E2A22E38
:10095000B12C34EA832E30E0932ECE0101967C0137
:1009600048EE642E43E0742E18A21F8E1AA219A21C
:100970001CA21BA242E150E068E171E0CE014F965B
:100980000E94090360E089E00E94DD01C601019731
:10099000F1F761E089E00E94DD01C5010197F1F7FF
:1009A00060E089E00E94DD01E8EBF0E06491F40191
:1009B0008491E82FF0E0EE0FFF1FE057FF4F859185
:1009C000949100E412E42FE030E0462F0E94CC0323
:1009D000611571058105910549F0DC01CB01019696
:1009E000A11DB11DBC01CD019F7003C060E070E08E
:1009F000CB0160933501709336018093370190935A
:100A000038010E94BB0626E933E44BE05DE30E9417
:100A1000F60620E030E040E05FE30E94F6060E9428
:100A200005081B012C01709334016093330168EEBB
:100A300073E080E090E00E948A021A8E198E1C8E6C
:100A40001B8E1E8E1D8E4AE0B701C1010E948406D6
:100A5000F70101900020E9F73197AF014E195F09C6
:100A6000B701CE0149960E9409031C8A1B8A1E8A7F
:100A70001D8A188E1F8A6F8D78A16115710531F05E
:100A80004BA15CA1CE0143960E9409038D8D9E8DE2
:100A9000298C3A8C0F89188D2114310409F4E0C097
:100AA0000097A9F0080F191FB801CE0143960E94C4
:100AB000E202882309F4D4C02B893C898F89988D60
:100AC000B101820F931F0E94460A188F0F8B1A8262
:100AD00019821C821B821E821D826B897C89611592
:100AE000710529F04F89588DC7010E9409038F8D28
:100AF00098A10097A9F069817A816115710571F05B
:100B000049A15AA12D813E814217530738F00E9416
:100B1000460A8D819E819CA38BA312C00E94D60899
:100B200089819A8198A38F8F8B819C819AA389A3B5
:100B30008D819E819CA38BA31A8219821C821B82A9
:100B40001E821D8289819A810E94D6088B899C8988
:100B50000E94D6084BA15CA16F8D78A18DE391E036
:100B60000E94D30042E050E06BE271E08DE391E03F
:100B70000E94D3008DE391E00E943301892B09F498
:100B800064C00E948C00FC0197FD11C08D3291055C
:100B900091F0C0970A9778F0E0913D01F0913E0105
:100BA0000284F385E02D8DE391E00995EACF80E0A2
:100BB00090E0DC012DC020E030E0A90110E0E13040
:100BC000F10509F052C0E0913D01F0913E0102842F
:100BD000F385E02D8DE391E02DA33EA34FA358A70D
:100BE00009950E948C00FC01C0972DA13EA14FA148
:100BF00058A50A9720F3E130F10509F3112309F410
:100C000053C088279927DC01821B930BA40BB50BDB
:100C10008C0118161906BCF40197B9F061E087E061
:100C20000E94DD0160E086E00E94DD01069DB001CA
:100C3000079D700D169D700D1124072E000C880B5A
:100C4000990B0E948A020E94C402898D9A8D0E948B
:100C5000D6088F8D98A10E94D6080E94D30184CE19
:100C6000CE0143960E94CE0232CFED32F105D1F093
:100C7000CF01C0970A9708F0A6CFAAE0B0E00E9483
:100C8000B4079F01FF0F440B550BDC01CB01820F12
:100C9000931FA41FB51F9C01AD01205331094109C9
:100CA000510991CF11E08FCFDA01C901B1CFEDE346
:100CB000F1E01382128288EE93E0A0E0B0E084833A
:100CC0009583A683B7838AE091E09183808385EC46
:100CD00090E09587848784EC90E09787868780EC06
:100CE00090E0918B808B81EC90E0938B828B82ECF7
:100CF00090E0958B848B86EC90E0978B868B118EA1
:100D0000128E138E148E0895BB274A3031F4992326
:100D100022F4BDE2909581959F4F0C949006BB27DD
:100D2000FB015527AA27880F991FAA1FA41710F0A7
:100D3000A41B83955051B9F7A05DAA3308F0A95DB3
:100D4000A193009779F7B111B1931192CB010C9453
:100D5000A906DC01FC01672F71917723E1F7329737
:100D600004C07C916D9370836291AE17BF07C8F386
:100D70000895E89409C097FB3EF49095809570958E
:100D800061957F4F8F4F9F4F9923A9F0F92F96E9D7
:100D9000BB279395F695879577956795B795F1114C
:100DA000F8CFFAF4BB0F11F460FF1BC06F5F7F4FE9
:100DB0008F4F9F4F16C0882311F096E911C07723FB
:100DC00021F09EE8872F762F05C0662371F096E804
:100DD000862F70E060E02AF09A95660F771F881FD3
:100DE000DAF7880F9695879597F908950E94090775
:100DF0000C947A070E946C0738F00E94730720F069
:100E0000952311F00C9463070C94690711240C943A
:100E1000AE070E948B0770F3959FC1F3950F50E0CA
:100E2000551F629FF001729FBB27F00DB11D639F9C
:100E3000AA27F00DB11DAA1F649F6627B00DA11D42
:100E4000661F829F2227B00DA11D621F739FB00DE8
:100E5000A11D621F839FA00D611D221F749F332758
:100E6000A00D611D231F849F600D211D822F762FF1
:100E70006A2F11249F5750409AF0F1F088234AF0CE
:100E8000EE0FFF1FBB1F661F771F881F915050403A
:100E9000A9F79E3F510580F00C9463070C94AE07B0
:100EA0005F3FE4F3983ED4F3869577956795B795C1
:100EB000F795E7959F5FC1F7FE2B880F911D9695DB
:100EC000879597F9089597F99F6780E870E060E04B
:100ED00008959FEF80EC089500240A9416161706D3
:100EE00018060906089500240A941216130614061B
:100EF00005060895092E0394000C11F4882352F07E
:100F0000BB0F40F4BF2B11F460FF04C06F5F7F4F35
:100F10008F4F9F4F089557FD9058440F551F59F01C
:100F20005F3F71F04795880F97FB991F61F09F3FD6
:100F300079F087950895121613061406551FF2CFFF
:100F40004695F1DF08C0161617061806991FF1CF4F
:100F500086957105610508940895E894BB27662776
:100F60007727CB0197F908950E94F607A59F900D6A
:100F7000B49F900DA49F800D911D112408952F9270
:100F80003F924F925F926F927F928F929F92AF9219
:100F9000BF92CF92DF92EF92FF920F931F93CF9366
:100FA000DF93CDB7DEB7CA1BDB0B0FB6F894DEBFFD
:100FB0000FBECDBF09942A88398848885F846E8423
:100FC0007D848C849B84AA84B984C884DF80EE806D
:100FD000FD800C811B81AA81B981CE0FD11D0FB676
:100FE000F894DEBF0FBECDBFED010895A29FB00102
:100FF000B39FC001A39F700D811D1124911DB29F4D
:10100000700D811D1124911D08950E940C08689493
:10101000B1110C94AE0708950E94930788F09F5772
:1010200098F0B92F9927B751B0F0E1F0660F771F0C
:10103000881F991F1AF0BA95C9F714C0B13091F002
:101040000E94AD07B1E008950C94AD07672F782F8B
:101050008827B85F39F0B93FCCF3869577956795C7
:10106000B395D9F73EF490958095709561957F4F33
:101070008F4F9F4F0895EE0FFF1F0590F491E02DC5
:101080000994CF93DF938230910510F482E090E0D1
:10109000E091DC01F091DD0120E030E0C0E0D0E043
:1010A000309711F14081518148175907C0F0481716
:1010B000590761F482819381209719F09B838A8379
:1010C0002BC09093DD018093DC0126C021153105F2
:1010D00019F04217530718F49A01BE01DF01EF011E
:1010E0000280F381E02DDCCF2115310509F1281BA9
:1010F000390B2430310590F412968D919C91139701
:101100006115710521F0FB019383828304C09093E4
:10111000DD018093DC01FD01329644C0FD01E20F48
:10112000F31F81939193225031092D933C933AC040
:101130002091DA013091DB01232B41F4209102014F
:10114000309103013093DB012093DA0120910001FB
:10115000309101012115310541F42DB73EB7409181
:10116000040150910501241B350BE091DA01F09147
:10117000DB01E217F307A0F42E1B3F0B28173907FA
:1011800078F0AC014E5F5F4F2417350748F04E0FE3
:101190005F1F5093DB014093DA018193919302C06A
:1011A000E0E0F0E0CF01DF91CF9108950F931F931E
:1011B000CF93DF93009709F48CC0FC013297138220
:1011C00012820091DC011091DD010115110581F4FD
:1011D00020813181820F931F2091DA013091DB0150
:1011E0002817390779F5F093DB01E093DA0171C034
:1011F000D80140E050E0AE17BF0750F412962D9191
:101200003C911397AD012115310509F1D901F3CFB7
:101210009D01DA013383228360817181860F971FDC
:101220008217930769F4EC0128813981260F371F53
:101230002E5F3F4F318320838A819B8193838283FA
:10124000452B29F4F093DD01E093DC0142C01396B5
:10125000FC93EE931297ED01499159919E01240F51
:10126000351FE217F30771F480819181840F951F78
:10127000029611969C938E938281938113969C93F0
:101280008E931297E0E0F0E0D80112968D919C9138
:101290001397009719F0F8018C01F6CF8D919C916E
:1012A00098012E5F3F4F820F931F2091DA013091FA
:1012B000DB012817390769F4309729F41092DD0112
:1012C0001092DC0102C0138212821093DB010093A2
:1012D000DA01DF91CF911F910F910895A0E0B0E066
:1012E000E4E7F9E00C94C307EC01009721F4CB018B
:1012F0000E944108B8C0FC01E60FF71F9C01225074
:101300003109E217F30708F4ACC0D9010D911C9123
:10131000119706171707B0F00530110508F49FC0A4
:10132000C80104978617970708F499C0025011095D
:10133000061B170B019311936D937C93CF010E94B1
:10134000D6088DC05B01A01AB10A4C01800E911E17
:10135000A091DC01B091DD0140E050E0E12CF12CE6
:10136000109709F44AC0A815B905D1F56D907C9085
:101370001197630182E0C80ED11CCA14DB0480F10E
:10138000A3014A195B096A0182E0C80ED11C1296BA
:10139000BC9012971396AC91B5E0CB16D10440F0F7
:1013A000B282A38351834083D9016D937C930AC099
:1013B0000E5F1F4FC301800F911FF901918380833E
:1013C000EB2DFA2FE114F10431F0D7011396FC93C1
:1013D000EE93129744C0F093DD01E093DC013FC02F
:1013E0008D919C9111974817590708F4AC017D0124
:1013F00012960D90BC91A02DB3CF8091DA019091FF
:10140000DB0188159905E1F446175707C8F4809168
:10141000000190910101009741F48DB79EB7409172
:10142000040150910501841B950BE817F907C8F4D6
:10143000F093DB01E093DA01F901718360830FC05F
:10144000CB010E9441087C01009759F0A801BE0120
:101450000E943D0ACE010E94D608C70104C0CE01F9
:1014600002C080E090E0CDB7DEB7EEE00C94DF077D
:1014700081E090E0F8940C944D0AFB01DC0102C07D
:1014800001900D9241505040D8F70895FB01DC01C6
:0E14900001900D920020E1F70895F894FFCF2F
:10149E000000DE018000000000006A01D30002019E
:1014AE00B10133011101250173746174757320222A
:0E14BE0064697374616E6365223A000D0A0062
:00000001FF
